{
  "_format": "hh-sol-artifact-1",
  "contractName": "CryptoBotsNFT",
  "sourceName": "contracts/CryptoBotsNFT.sol",
  "abi": [
    {
      "inputs": [],
      "stateMutability": "payable",
      "type": "constructor"
    },
    {
      "anonymous": false,
      "inputs": [
        {
          "indexed": true,
          "internalType": "address",
          "name": "owner",
          "type": "address"
        },
        {
          "indexed": true,
          "internalType": "address",
          "name": "approved",
          "type": "address"
        },
        {
          "indexed": true,
          "internalType": "uint256",
          "name": "tokenId",
          "type": "uint256"
        }
      ],
      "name": "Approval",
      "type": "event"
    },
    {
      "anonymous": false,
      "inputs": [
        {
          "indexed": true,
          "internalType": "address",
          "name": "owner",
          "type": "address"
        },
        {
          "indexed": true,
          "internalType": "address",
          "name": "operator",
          "type": "address"
        },
        {
          "indexed": false,
          "internalType": "bool",
          "name": "approved",
          "type": "bool"
        }
      ],
      "name": "ApprovalForAll",
      "type": "event"
    },
    {
      "anonymous": false,
      "inputs": [
        {
          "indexed": true,
          "internalType": "address",
          "name": "previousOwner",
          "type": "address"
        },
        {
          "indexed": true,
          "internalType": "address",
          "name": "newOwner",
          "type": "address"
        }
      ],
      "name": "OwnershipTransferred",
      "type": "event"
    },
    {
      "anonymous": false,
      "inputs": [
        {
          "indexed": true,
          "internalType": "address",
          "name": "from",
          "type": "address"
        },
        {
          "indexed": true,
          "internalType": "address",
          "name": "to",
          "type": "address"
        },
        {
          "indexed": true,
          "internalType": "uint256",
          "name": "tokenId",
          "type": "uint256"
        }
      ],
      "name": "Transfer",
      "type": "event"
    },
    {
      "inputs": [
        {
          "internalType": "address",
          "name": "to",
          "type": "address"
        },
        {
          "internalType": "uint256",
          "name": "tokenId",
          "type": "uint256"
        }
      ],
      "name": "approve",
      "outputs": [],
      "stateMutability": "nonpayable",
      "type": "function"
    },
    {
      "inputs": [
        {
          "internalType": "address",
          "name": "owner",
          "type": "address"
        }
      ],
      "name": "balanceOf",
      "outputs": [
        {
          "internalType": "uint256",
          "name": "",
          "type": "uint256"
        }
      ],
      "stateMutability": "view",
      "type": "function"
    },
    {
      "inputs": [
        {
          "internalType": "uint256",
          "name": "tokenId",
          "type": "uint256"
        }
      ],
      "name": "getApproved",
      "outputs": [
        {
          "internalType": "address",
          "name": "",
          "type": "address"
        }
      ],
      "stateMutability": "view",
      "type": "function"
    },
    {
      "inputs": [
        {
          "internalType": "address",
          "name": "owner",
          "type": "address"
        },
        {
          "internalType": "address",
          "name": "operator",
          "type": "address"
        }
      ],
      "name": "isApprovedForAll",
      "outputs": [
        {
          "internalType": "bool",
          "name": "",
          "type": "bool"
        }
      ],
      "stateMutability": "view",
      "type": "function"
    },
    {
      "inputs": [],
      "name": "isPublicMintEnabled",
      "outputs": [
        {
          "internalType": "bool",
          "name": "",
          "type": "bool"
        }
      ],
      "stateMutability": "view",
      "type": "function"
    },
    {
      "inputs": [
        {
          "internalType": "uint256",
          "name": "quantity_",
          "type": "uint256"
        }
      ],
      "name": "mint",
      "outputs": [],
      "stateMutability": "payable",
      "type": "function"
    },
    {
      "inputs": [],
      "name": "name",
      "outputs": [
        {
          "internalType": "string",
          "name": "",
          "type": "string"
        }
      ],
      "stateMutability": "view",
      "type": "function"
    },
    {
      "inputs": [],
      "name": "owner",
      "outputs": [
        {
          "internalType": "address",
          "name": "",
          "type": "address"
        }
      ],
      "stateMutability": "view",
      "type": "function"
    },
    {
      "inputs": [
        {
          "internalType": "uint256",
          "name": "tokenId",
          "type": "uint256"
        }
      ],
      "name": "ownerOf",
      "outputs": [
        {
          "internalType": "address",
          "name": "",
          "type": "address"
        }
      ],
      "stateMutability": "view",
      "type": "function"
    },
    {
      "inputs": [],
      "name": "renounceOwnership",
      "outputs": [],
      "stateMutability": "nonpayable",
      "type": "function"
    },
    {
      "inputs": [
        {
          "internalType": "address",
          "name": "from",
          "type": "address"
        },
        {
          "internalType": "address",
          "name": "to",
          "type": "address"
        },
        {
          "internalType": "uint256",
          "name": "tokenId",
          "type": "uint256"
        }
      ],
      "name": "safeTransferFrom",
      "outputs": [],
      "stateMutability": "nonpayable",
      "type": "function"
    },
    {
      "inputs": [
        {
          "internalType": "address",
          "name": "from",
          "type": "address"
        },
        {
          "internalType": "address",
          "name": "to",
          "type": "address"
        },
        {
          "internalType": "uint256",
          "name": "tokenId",
          "type": "uint256"
        },
        {
          "internalType": "bytes",
          "name": "_data",
          "type": "bytes"
        }
      ],
      "name": "safeTransferFrom",
      "outputs": [],
      "stateMutability": "nonpayable",
      "type": "function"
    },
    {
      "inputs": [
        {
          "internalType": "address",
          "name": "operator",
          "type": "address"
        },
        {
          "internalType": "bool",
          "name": "approved",
          "type": "bool"
        }
      ],
      "name": "setApprovalForAll",
      "outputs": [],
      "stateMutability": "nonpayable",
      "type": "function"
    },
    {
      "inputs": [
        {
          "internalType": "string",
          "name": "baseTokenUri_",
          "type": "string"
        }
      ],
      "name": "setBaseTokenUri",
      "outputs": [],
      "stateMutability": "nonpayable",
      "type": "function"
    },
    {
      "inputs": [
        {
          "internalType": "bool",
          "name": "isPublicMintEnabled_",
          "type": "bool"
        }
      ],
      "name": "setIsPublicMintEnabled",
      "outputs": [],
      "stateMutability": "nonpayable",
      "type": "function"
    },
    {
      "inputs": [
        {
          "internalType": "bytes4",
          "name": "interfaceId",
          "type": "bytes4"
        }
      ],
      "name": "supportsInterface",
      "outputs": [
        {
          "internalType": "bool",
          "name": "",
          "type": "bool"
        }
      ],
      "stateMutability": "view",
      "type": "function"
    },
    {
      "inputs": [],
      "name": "symbol",
      "outputs": [
        {
          "internalType": "string",
          "name": "",
          "type": "string"
        }
      ],
      "stateMutability": "view",
      "type": "function"
    },
    {
      "inputs": [
        {
          "internalType": "uint256",
          "name": "tokenId_",
          "type": "uint256"
        }
      ],
      "name": "tokenURI",
      "outputs": [
        {
          "internalType": "string",
          "name": "",
          "type": "string"
        }
      ],
      "stateMutability": "view",
      "type": "function"
    },
    {
      "inputs": [
        {
          "internalType": "address",
          "name": "from",
          "type": "address"
        },
        {
          "internalType": "address",
          "name": "to",
          "type": "address"
        },
        {
          "internalType": "uint256",
          "name": "tokenId",
          "type": "uint256"
        }
      ],
      "name": "transferFrom",
      "outputs": [],
      "stateMutability": "nonpayable",
      "type": "function"
    },
    {
      "inputs": [
        {
          "internalType": "address",
          "name": "newOwner",
          "type": "address"
        }
      ],
      "name": "transferOwnership",
      "outputs": [],
      "stateMutability": "nonpayable",
      "type": "function"
    },
    {
      "inputs": [
        {
          "internalType": "address",
          "name": "",
          "type": "address"
        }
      ],
      "name": "walletMints",
      "outputs": [
        {
          "internalType": "uint256",
          "name": "",
          "type": "uint256"
        }
      ],
      "stateMutability": "view",
      "type": "function"
    },
    {
      "inputs": [],
      "name": "withdraw",
      "outputs": [],
      "stateMutability": "nonpayable",
      "type": "function"
    },
    {
      "inputs": [],
      "name": "withdrawWallet",
      "outputs": [
        {
          "internalType": "address payable",
          "name": "",
          "type": "address"
        }
      ],
      "stateMutability": "view",
      "type": "function"
    }
  ],
  "bytecode": "0x60806040526040518060400160405280600a81526020017f43727970746f426f7473000000000000000000000000000000000000000000008152506040518060400160405280600481526020017f4342545300000000000000000000000000000000000000000000000000000000815250816000908051906020019062000088929190620001bd565b508060019080519060200190620000a1929190620001bd565b505050620000c4620000b8620000ef60201b60201c565b620000f760201b60201c565b642e90edd00060078190555060006008819055506103e86009819055506005600a81905550620002d2565b600033905090565b6000600660009054906101000a900473ffffffffffffffffffffffffffffffffffffffff16905081600660006101000a81548173ffffffffffffffffffffffffffffffffffffffff021916908373ffffffffffffffffffffffffffffffffffffffff1602179055508173ffffffffffffffffffffffffffffffffffffffff168173ffffffffffffffffffffffffffffffffffffffff167f8be0079c531659141344cd1fd0a4f28419497f9722a3daafe3b4186f6b6457e060405160405180910390a35050565b828054620001cb906200026d565b90600052602060002090601f016020900481019282620001ef57600085556200023b565b82601f106200020a57805160ff19168380011785556200023b565b828001600101855582156200023b579182015b828111156200023a5782518255916020019190600101906200021d565b5b5090506200024a91906200024e565b5090565b5b80821115620002695760008160009055506001016200024f565b5090565b600060028204905060018216806200028657607f821691505b602082108114156200029d576200029c620002a3565b5b50919050565b7f4e487b7100000000000000000000000000000000000000000000000000000000600052602260045260246000fd5b61367380620002e26000396000f3fe6080604052600436106101405760003560e01c8063715018a6116100b6578063a22cb4651161006f578063a22cb46514610427578063b88d4fde14610450578063c87b56dd14610479578063e985e9c5146104b6578063f0293fd3146104f3578063f2fde38b1461053057610140565b8063715018a61461034a57806385d178f4146103615780638da5cb5b1461038c57806395652cfa146103b757806395d89b41146103e0578063a0712d681461040b57610140565b80632373ac22116101085780632373ac221461023e57806323b872dd146102675780633ccfd60b1461029057806342842e0e146102a75780636352211e146102d057806370a082311461030d57610140565b80630116bc2d1461014557806301ffc9a71461017057806306fdde03146101ad578063081812fc146101d8578063095ea7b314610215575b600080fd5b34801561015157600080fd5b5061015a610559565b604051610167919061297e565b60405180910390f35b34801561017c57600080fd5b5061019760048036038101906101929190612375565b61056c565b6040516101a4919061297e565b60405180910390f35b3480156101b957600080fd5b506101c261064e565b6040516101cf9190612999565b60405180910390f35b3480156101e457600080fd5b506101ff60048036038101906101fa919061240c565b6106e0565b60405161020c91906128fc565b60405180910390f35b34801561022157600080fd5b5061023c60048036038101906102379190612310565b610765565b005b34801561024a57600080fd5b506102656004803603810190610260919061234c565b61087d565b005b34801561027357600080fd5b5061028e6004803603810190610289919061220a565b610916565b005b34801561029c57600080fd5b506102a5610976565b005b3480156102b357600080fd5b506102ce60048036038101906102c9919061220a565b610ac3565b005b3480156102dc57600080fd5b506102f760048036038101906102f2919061240c565b610ae3565b60405161030491906128fc565b60405180910390f35b34801561031957600080fd5b50610334600480360381019061032f91906121a5565b610b95565b6040516103419190612c5b565b60405180910390f35b34801561035657600080fd5b5061035f610c4d565b005b34801561036d57600080fd5b50610376610cd5565b6040516103839190612917565b60405180910390f35b34801561039857600080fd5b506103a1610cfb565b6040516103ae91906128fc565b60405180910390f35b3480156103c357600080fd5b506103de60048036038101906103d991906123c7565b610d25565b005b3480156103ec57600080fd5b506103f5610db7565b6040516104029190612999565b60405180910390f35b6104256004803603810190610420919061240c565b610e49565b005b34801561043357600080fd5b5061044e600480360381019061044991906122d4565b611020565b005b34801561045c57600080fd5b5061047760048036038101906104729190612259565b611036565b005b34801561048557600080fd5b506104a0600480360381019061049b919061240c565b611098565b6040516104ad9190612999565b60405180910390f35b3480156104c257600080fd5b506104dd60048036038101906104d891906121ce565b611114565b6040516104ea919061297e565b60405180910390f35b3480156104ff57600080fd5b5061051a600480360381019061051591906121a5565b6111a8565b6040516105279190612c5b565b60405180910390f35b34801561053c57600080fd5b50610557600480360381019061055291906121a5565b6111c0565b005b600b60009054906101000a900460ff1681565b60007f80ac58cd000000000000000000000000000000000000000000000000000000007bffffffffffffffffffffffffffffffffffffffffffffffffffffffff1916827bffffffffffffffffffffffffffffffffffffffffffffffffffffffff1916148061063757507f5b5e139f000000000000000000000000000000000000000000000000000000007bffffffffffffffffffffffffffffffffffffffffffffffffffffffff1916827bffffffffffffffffffffffffffffffffffffffffffffffffffffffff1916145b806106475750610646826112b8565b5b9050919050565b60606000805461065d90612f0c565b80601f016020809104026020016040519081016040528092919081815260200182805461068990612f0c565b80156106d65780601f106106ab576101008083540402835291602001916106d6565b820191906000526020600020905b8154815290600101906020018083116106b957829003601f168201915b5050505050905090565b60006106eb82611322565b61072a576040517f08c379a000000000000000000000000000000000000000000000000000000000815260040161072190612b7b565b60405180910390fd5b6004600083815260200190815260200160002060009054906101000a900473ffffffffffffffffffffffffffffffffffffffff169050919050565b600061077082610ae3565b90508073ffffffffffffffffffffffffffffffffffffffff168373ffffffffffffffffffffffffffffffffffffffff1614156107e1576040517f08c379a00000000000000000000000000000000000000000000000000000000081526004016107d890612bdb565b60405180910390fd5b8073ffffffffffffffffffffffffffffffffffffffff1661080061138e565b73ffffffffffffffffffffffffffffffffffffffff16148061082f575061082e8161082961138e565b611114565b5b61086e576040517f08c379a000000000000000000000000000000000000000000000000000000000815260040161086590612afb565b60405180910390fd5b6108788383611396565b505050565b61088561138e565b73ffffffffffffffffffffffffffffffffffffffff166108a3610cfb565b73ffffffffffffffffffffffffffffffffffffffff16146108f9576040517f08c379a00000000000000000000000000000000000000000000000000000000081526004016108f090612bbb565b60405180910390fd5b80600b60006101000a81548160ff02191690831515021790555050565b61092761092161138e565b8261144f565b610966576040517f08c379a000000000000000000000000000000000000000000000000000000000815260040161095d90612bfb565b60405180910390fd5b61097183838361152d565b505050565b61097e61138e565b73ffffffffffffffffffffffffffffffffffffffff1661099c610cfb565b73ffffffffffffffffffffffffffffffffffffffff16146109f2576040517f08c379a00000000000000000000000000000000000000000000000000000000081526004016109e990612bbb565b60405180910390fd5b6000600d60009054906101000a900473ffffffffffffffffffffffffffffffffffffffff1673ffffffffffffffffffffffffffffffffffffffff1647604051610a3a906128e7565b60006040518083038185875af1925050503d8060008114610a77576040519150601f19603f3d011682016040523d82523d6000602084013e610a7c565b606091505b5050905080610ac0576040517f08c379a0000000000000000000000000000000000000000000000000000000008152600401610ab790612c3b565b60405180910390fd5b50565b610ade83838360405180602001604052806000815250611036565b505050565b6000806002600084815260200190815260200160002060009054906101000a900473ffffffffffffffffffffffffffffffffffffffff169050600073ffffffffffffffffffffffffffffffffffffffff168173ffffffffffffffffffffffffffffffffffffffff161415610b8c576040517f08c379a0000000000000000000000000000000000000000000000000000000008152600401610b8390612b3b565b60405180910390fd5b80915050919050565b60008073ffffffffffffffffffffffffffffffffffffffff168273ffffffffffffffffffffffffffffffffffffffff161415610c06576040517f08c379a0000000000000000000000000000000000000000000000000000000008152600401610bfd90612b1b565b60405180910390fd5b600360008373ffffffffffffffffffffffffffffffffffffffff1673ffffffffffffffffffffffffffffffffffffffff168152602001908152602001600020549050919050565b610c5561138e565b73ffffffffffffffffffffffffffffffffffffffff16610c73610cfb565b73ffffffffffffffffffffffffffffffffffffffff1614610cc9576040517f08c379a0000000000000000000000000000000000000000000000000000000008152600401610cc090612bbb565b60405180910390fd5b610cd36000611794565b565b600d60009054906101000a900473ffffffffffffffffffffffffffffffffffffffff1681565b6000600660009054906101000a900473ffffffffffffffffffffffffffffffffffffffff16905090565b610d2d61138e565b73ffffffffffffffffffffffffffffffffffffffff16610d4b610cfb565b73ffffffffffffffffffffffffffffffffffffffff1614610da1576040517f08c379a0000000000000000000000000000000000000000000000000000000008152600401610d9890612bbb565b60405180910390fd5b8181600c9190610db2929190611fe7565b505050565b606060018054610dc690612f0c565b80601f0160208091040260200160405190810160405280929190818152602001828054610df290612f0c565b8015610e3f5780601f10610e1457610100808354040283529160200191610e3f565b820191906000526020600020905b815481529060010190602001808311610e2257829003601f168201915b5050505050905090565b600b60009054906101000a900460ff16610e98576040517f08c379a0000000000000000000000000000000000000000000000000000000008152600401610e8f906129fb565b60405180910390fd5b60075481610ea69190612db6565b3414610ee7576040517f08c379a0000000000000000000000000000000000000000000000000000000008152600401610ede906129bb565b60405180910390fd5b60095481600854610ef89190612d2f565b1115610f39576040517f08c379a0000000000000000000000000000000000000000000000000000000008152600401610f3090612adb565b60405180910390fd5b600a5481600e60003373ffffffffffffffffffffffffffffffffffffffff1673ffffffffffffffffffffffffffffffffffffffff16815260200190815260200160002054610f879190612d2f565b1115610fc8576040517f08c379a0000000000000000000000000000000000000000000000000000000008152600401610fbf90612b9b565b60405180910390fd5b60005b8181101561101c5760006001600854610fe49190612d2f565b905060086000815480929190610ff990612f6f565b9190505550611008338261185a565b50808061101490612f6f565b915050610fcb565b5050565b61103261102b61138e565b8383611878565b5050565b61104761104161138e565b8361144f565b611086576040517f08c379a000000000000000000000000000000000000000000000000000000000815260040161107d90612bfb565b60405180910390fd5b611092848484846119e5565b50505050565b60606110a382611322565b6110e2576040517f08c379a00000000000000000000000000000000000000000000000000000000081526004016110d990612c1b565b60405180910390fd5b600c6110ed83611a41565b6040516020016110fe9291906128b8565b6040516020818303038152906040529050919050565b6000600560008473ffffffffffffffffffffffffffffffffffffffff1673ffffffffffffffffffffffffffffffffffffffff16815260200190815260200160002060008373ffffffffffffffffffffffffffffffffffffffff1673ffffffffffffffffffffffffffffffffffffffff16815260200190815260200160002060009054906101000a900460ff16905092915050565b600e6020528060005260406000206000915090505481565b6111c861138e565b73ffffffffffffffffffffffffffffffffffffffff166111e6610cfb565b73ffffffffffffffffffffffffffffffffffffffff161461123c576040517f08c379a000000000000000000000000000000000000000000000000000000000815260040161123390612bbb565b60405180910390fd5b600073ffffffffffffffffffffffffffffffffffffffff168173ffffffffffffffffffffffffffffffffffffffff1614156112ac576040517f08c379a00000000000000000000000000000000000000000000000000000000081526004016112a390612a1b565b60405180910390fd5b6112b581611794565b50565b60007f01ffc9a7000000000000000000000000000000000000000000000000000000007bffffffffffffffffffffffffffffffffffffffffffffffffffffffff1916827bffffffffffffffffffffffffffffffffffffffffffffffffffffffff1916149050919050565b60008073ffffffffffffffffffffffffffffffffffffffff166002600084815260200190815260200160002060009054906101000a900473ffffffffffffffffffffffffffffffffffffffff1673ffffffffffffffffffffffffffffffffffffffff1614159050919050565b600033905090565b816004600083815260200190815260200160002060006101000a81548173ffffffffffffffffffffffffffffffffffffffff021916908373ffffffffffffffffffffffffffffffffffffffff160217905550808273ffffffffffffffffffffffffffffffffffffffff1661140983610ae3565b73ffffffffffffffffffffffffffffffffffffffff167f8c5be1e5ebec7d5bd14f71427d1e84f3dd0314c0f7b2291e5b200ac8c7c3b92560405160405180910390a45050565b600061145a82611322565b611499576040517f08c379a000000000000000000000000000000000000000000000000000000000815260040161149090612abb565b60405180910390fd5b60006114a483610ae3565b90508073ffffffffffffffffffffffffffffffffffffffff168473ffffffffffffffffffffffffffffffffffffffff16148061151357508373ffffffffffffffffffffffffffffffffffffffff166114fb846106e0565b73ffffffffffffffffffffffffffffffffffffffff16145b8061152457506115238185611114565b5b91505092915050565b8273ffffffffffffffffffffffffffffffffffffffff1661154d82610ae3565b73ffffffffffffffffffffffffffffffffffffffff16146115a3576040517f08c379a000000000000000000000000000000000000000000000000000000000815260040161159a90612a3b565b60405180910390fd5b600073ffffffffffffffffffffffffffffffffffffffff168273ffffffffffffffffffffffffffffffffffffffff161415611613576040517f08c379a000000000000000000000000000000000000000000000000000000000815260040161160a90612a7b565b60405180910390fd5b61161e838383611bee565b611629600082611396565b6001600360008573ffffffffffffffffffffffffffffffffffffffff1673ffffffffffffffffffffffffffffffffffffffff16815260200190815260200160002060008282546116799190612e10565b925050819055506001600360008473ffffffffffffffffffffffffffffffffffffffff1673ffffffffffffffffffffffffffffffffffffffff16815260200190815260200160002060008282546116d09190612d2f565b92505081905550816002600083815260200190815260200160002060006101000a81548173ffffffffffffffffffffffffffffffffffffffff021916908373ffffffffffffffffffffffffffffffffffffffff160217905550808273ffffffffffffffffffffffffffffffffffffffff168473ffffffffffffffffffffffffffffffffffffffff167fddf252ad1be2c89b69c2b068fc378daa952ba7f163c4a11628f55a4df523b3ef60405160405180910390a461178f838383611bf3565b505050565b6000600660009054906101000a900473ffffffffffffffffffffffffffffffffffffffff16905081600660006101000a81548173ffffffffffffffffffffffffffffffffffffffff021916908373ffffffffffffffffffffffffffffffffffffffff1602179055508173ffffffffffffffffffffffffffffffffffffffff168173ffffffffffffffffffffffffffffffffffffffff167f8be0079c531659141344cd1fd0a4f28419497f9722a3daafe3b4186f6b6457e060405160405180910390a35050565b611874828260405180602001604052806000815250611bf8565b5050565b8173ffffffffffffffffffffffffffffffffffffffff168373ffffffffffffffffffffffffffffffffffffffff1614156118e7576040517f08c379a00000000000000000000000000000000000000000000000000000000081526004016118de90612a9b565b60405180910390fd5b80600560008573ffffffffffffffffffffffffffffffffffffffff1673ffffffffffffffffffffffffffffffffffffffff16815260200190815260200160002060008473ffffffffffffffffffffffffffffffffffffffff1673ffffffffffffffffffffffffffffffffffffffff16815260200190815260200160002060006101000a81548160ff0219169083151502179055508173ffffffffffffffffffffffffffffffffffffffff168373ffffffffffffffffffffffffffffffffffffffff167f17307eab39ab6107e8899845ad3d59bd9653f200f220920489ca2b5937696c31836040516119d8919061297e565b60405180910390a3505050565b6119f084848461152d565b6119fc84848484611c53565b611a3b576040517f08c379a0000000000000000000000000000000000000000000000000000000008152600401611a32906129db565b60405180910390fd5b50505050565b60606000821415611a89576040518060400160405280600181526020017f30000000000000000000000000000000000000000000000000000000000000008152509050611be9565b600082905060005b60008214611abb578080611aa490612f6f565b915050600a82611ab49190612d85565b9150611a91565b60008167ffffffffffffffff811115611afd577f4e487b7100000000000000000000000000000000000000000000000000000000600052604160045260246000fd5b6040519080825280601f01601f191660200182016040528015611b2f5781602001600182028036833780820191505090505b5090505b60008514611be257600182611b489190612e10565b9150600a85611b579190612fb8565b6030611b639190612d2f565b60f81b818381518110611b9f577f4e487b7100000000000000000000000000000000000000000000000000000000600052603260045260246000fd5b60200101907effffffffffffffffffffffffffffffffffffffffffffffffffffffffffffff1916908160001a905350600a85611bdb9190612d85565b9450611b33565b8093505050505b919050565b505050565b505050565b611c028383611dea565b611c0f6000848484611c53565b611c4e576040517f08c379a0000000000000000000000000000000000000000000000000000000008152600401611c45906129db565b60405180910390fd5b505050565b6000611c748473ffffffffffffffffffffffffffffffffffffffff16611fc4565b15611ddd578373ffffffffffffffffffffffffffffffffffffffff1663150b7a02611c9d61138e565b8786866040518563ffffffff1660e01b8152600401611cbf9493929190612932565b602060405180830381600087803b158015611cd957600080fd5b505af1925050508015611d0a57506040513d601f19601f82011682018060405250810190611d07919061239e565b60015b611d8d573d8060008114611d3a576040519150601f19603f3d011682016040523d82523d6000602084013e611d3f565b606091505b50600081511415611d85576040517f08c379a0000000000000000000000000000000000000000000000000000000008152600401611d7c906129db565b60405180910390fd5b805181602001fd5b63150b7a0260e01b7bffffffffffffffffffffffffffffffffffffffffffffffffffffffff1916817bffffffffffffffffffffffffffffffffffffffffffffffffffffffff191614915050611de2565b600190505b949350505050565b600073ffffffffffffffffffffffffffffffffffffffff168273ffffffffffffffffffffffffffffffffffffffff161415611e5a576040517f08c379a0000000000000000000000000000000000000000000000000000000008152600401611e5190612b5b565b60405180910390fd5b611e6381611322565b15611ea3576040517f08c379a0000000000000000000000000000000000000000000000000000000008152600401611e9a90612a5b565b60405180910390fd5b611eaf60008383611bee565b6001600360008473ffffffffffffffffffffffffffffffffffffffff1673ffffffffffffffffffffffffffffffffffffffff1681526020019081526020016000206000828254611eff9190612d2f565b92505081905550816002600083815260200190815260200160002060006101000a81548173ffffffffffffffffffffffffffffffffffffffff021916908373ffffffffffffffffffffffffffffffffffffffff160217905550808273ffffffffffffffffffffffffffffffffffffffff16600073ffffffffffffffffffffffffffffffffffffffff167fddf252ad1be2c89b69c2b068fc378daa952ba7f163c4a11628f55a4df523b3ef60405160405180910390a4611fc060008383611bf3565b5050565b6000808273ffffffffffffffffffffffffffffffffffffffff163b119050919050565b828054611ff390612f0c565b90600052602060002090601f016020900481019282612015576000855561205c565b82601f1061202e57803560ff191683800117855561205c565b8280016001018555821561205c579182015b8281111561205b578235825591602001919060010190612040565b5b509050612069919061206d565b5090565b5b8082111561208657600081600090555060010161206e565b5090565b600061209d61209884612c9b565b612c76565b9050828152602081018484840111156120b557600080fd5b6120c0848285612eca565b509392505050565b6000813590506120d7816135e1565b92915050565b6000813590506120ec816135f8565b92915050565b6000813590506121018161360f565b92915050565b6000815190506121168161360f565b92915050565b600082601f83011261212d57600080fd5b813561213d84826020860161208a565b91505092915050565b60008083601f84011261215857600080fd5b8235905067ffffffffffffffff81111561217157600080fd5b60208301915083600182028301111561218957600080fd5b9250929050565b60008135905061219f81613626565b92915050565b6000602082840312156121b757600080fd5b60006121c5848285016120c8565b91505092915050565b600080604083850312156121e157600080fd5b60006121ef858286016120c8565b9250506020612200858286016120c8565b9150509250929050565b60008060006060848603121561221f57600080fd5b600061222d868287016120c8565b935050602061223e868287016120c8565b925050604061224f86828701612190565b9150509250925092565b6000806000806080858703121561226f57600080fd5b600061227d878288016120c8565b945050602061228e878288016120c8565b935050604061229f87828801612190565b925050606085013567ffffffffffffffff8111156122bc57600080fd5b6122c88782880161211c565b91505092959194509250565b600080604083850312156122e757600080fd5b60006122f5858286016120c8565b9250506020612306858286016120dd565b9150509250929050565b6000806040838503121561232357600080fd5b6000612331858286016120c8565b925050602061234285828601612190565b9150509250929050565b60006020828403121561235e57600080fd5b600061236c848285016120dd565b91505092915050565b60006020828403121561238757600080fd5b6000612395848285016120f2565b91505092915050565b6000602082840312156123b057600080fd5b60006123be84828501612107565b91505092915050565b600080602083850312156123da57600080fd5b600083013567ffffffffffffffff8111156123f457600080fd5b61240085828601612146565b92509250509250929050565b60006020828403121561241e57600080fd5b600061242c84828501612190565b91505092915050565b61243e81612e56565b82525050565b61244d81612e44565b82525050565b61245c81612e68565b82525050565b600061246d82612ce1565b6124778185612cf7565b9350612487818560208601612ed9565b612490816130a5565b840191505092915050565b60006124a682612cec565b6124b08185612d13565b93506124c0818560208601612ed9565b6124c9816130a5565b840191505092915050565b60006124df82612cec565b6124e98185612d24565b93506124f9818560208601612ed9565b80840191505092915050565b6000815461251281612f0c565b61251c8186612d24565b9450600182166000811461253757600181146125485761257b565b60ff1983168652818601935061257b565b61255185612ccc565b60005b8381101561257357815481890152600182019150602081019050612554565b838801955050505b50505092915050565b6000612591601083612d13565b915061259c826130b6565b602082019050919050565b60006125b4603283612d13565b91506125bf826130df565b604082019050919050565b60006125d7601383612d13565b91506125e28261312e565b602082019050919050565b60006125fa602683612d13565b915061260582613157565b604082019050919050565b600061261d602583612d13565b9150612628826131a6565b604082019050919050565b6000612640601c83612d13565b915061264b826131f5565b602082019050919050565b6000612663602483612d13565b915061266e8261321e565b604082019050919050565b6000612686601983612d13565b91506126918261326d565b602082019050919050565b60006126a9602c83612d13565b91506126b482613296565b604082019050919050565b60006126cc600883612d13565b91506126d7826132e5565b602082019050919050565b60006126ef603883612d13565b91506126fa8261330e565b604082019050919050565b6000612712602a83612d13565b915061271d8261335d565b604082019050919050565b6000612735602983612d13565b9150612740826133ac565b604082019050919050565b6000612758602083612d13565b9150612763826133fb565b602082019050919050565b600061277b602c83612d13565b915061278682613424565b604082019050919050565b600061279e600583612d24565b91506127a982613473565b600582019050919050565b60006127c1601183612d13565b91506127cc8261349c565b602082019050919050565b60006127e4602083612d13565b91506127ef826134c5565b602082019050919050565b6000612807602183612d13565b9150612812826134ee565b604082019050919050565b600061282a600083612d08565b91506128358261353d565b600082019050919050565b600061284d603183612d13565b915061285882613540565b604082019050919050565b6000612870601583612d13565b915061287b8261358f565b602082019050919050565b6000612893600f83612d13565b915061289e826135b8565b602082019050919050565b6128b281612ec0565b82525050565b60006128c48285612505565b91506128d082846124d4565b91506128db82612791565b91508190509392505050565b60006128f28261281d565b9150819050919050565b60006020820190506129116000830184612444565b92915050565b600060208201905061292c6000830184612435565b92915050565b60006080820190506129476000830187612444565b6129546020830186612444565b61296160408301856128a9565b81810360608301526129738184612462565b905095945050505050565b60006020820190506129936000830184612453565b92915050565b600060208201905081810360008301526129b3818461249b565b905092915050565b600060208201905081810360008301526129d481612584565b9050919050565b600060208201905081810360008301526129f4816125a7565b9050919050565b60006020820190508181036000830152612a14816125ca565b9050919050565b60006020820190508181036000830152612a34816125ed565b9050919050565b60006020820190508181036000830152612a5481612610565b9050919050565b60006020820190508181036000830152612a7481612633565b9050919050565b60006020820190508181036000830152612a9481612656565b9050919050565b60006020820190508181036000830152612ab481612679565b9050919050565b60006020820190508181036000830152612ad48161269c565b9050919050565b60006020820190508181036000830152612af4816126bf565b9050919050565b60006020820190508181036000830152612b14816126e2565b9050919050565b60006020820190508181036000830152612b3481612705565b9050919050565b60006020820190508181036000830152612b5481612728565b9050919050565b60006020820190508181036000830152612b748161274b565b9050919050565b60006020820190508181036000830152612b948161276e565b9050919050565b60006020820190508181036000830152612bb4816127b4565b9050919050565b60006020820190508181036000830152612bd4816127d7565b9050919050565b60006020820190508181036000830152612bf4816127fa565b9050919050565b60006020820190508181036000830152612c1481612840565b9050919050565b60006020820190508181036000830152612c3481612863565b9050919050565b60006020820190508181036000830152612c5481612886565b9050919050565b6000602082019050612c7060008301846128a9565b92915050565b6000612c80612c91565b9050612c8c8282612f3e565b919050565b6000604051905090565b600067ffffffffffffffff821115612cb657612cb5613076565b5b612cbf826130a5565b9050602081019050919050565b60008190508160005260206000209050919050565b600081519050919050565b600081519050919050565b600082825260208201905092915050565b600081905092915050565b600082825260208201905092915050565b600081905092915050565b6000612d3a82612ec0565b9150612d4583612ec0565b9250827fffffffffffffffffffffffffffffffffffffffffffffffffffffffffffffffff03821115612d7a57612d79612fe9565b5b828201905092915050565b6000612d9082612ec0565b9150612d9b83612ec0565b925082612dab57612daa613018565b5b828204905092915050565b6000612dc182612ec0565b9150612dcc83612ec0565b9250817fffffffffffffffffffffffffffffffffffffffffffffffffffffffffffffffff0483118215151615612e0557612e04612fe9565b5b828202905092915050565b6000612e1b82612ec0565b9150612e2683612ec0565b925082821015612e3957612e38612fe9565b5b828203905092915050565b6000612e4f82612ea0565b9050919050565b6000612e6182612ea0565b9050919050565b60008115159050919050565b60007fffffffff0000000000000000000000000000000000000000000000000000000082169050919050565b600073ffffffffffffffffffffffffffffffffffffffff82169050919050565b6000819050919050565b82818337600083830152505050565b60005b83811015612ef7578082015181840152602081019050612edc565b83811115612f06576000848401525b50505050565b60006002820490506001821680612f2457607f821691505b60208210811415612f3857612f37613047565b5b50919050565b612f47826130a5565b810181811067ffffffffffffffff82111715612f6657612f65613076565b5b80604052505050565b6000612f7a82612ec0565b91507fffffffffffffffffffffffffffffffffffffffffffffffffffffffffffffffff821415612fad57612fac612fe9565b5b600182019050919050565b6000612fc382612ec0565b9150612fce83612ec0565b925082612fde57612fdd613018565b5b828206905092915050565b7f4e487b7100000000000000000000000000000000000000000000000000000000600052601160045260246000fd5b7f4e487b7100000000000000000000000000000000000000000000000000000000600052601260045260246000fd5b7f4e487b7100000000000000000000000000000000000000000000000000000000600052602260045260246000fd5b7f4e487b7100000000000000000000000000000000000000000000000000000000600052604160045260246000fd5b6000601f19601f8301169050919050565b7f77726f6e67206d696e742076616c756500000000000000000000000000000000600082015250565b7f4552433732313a207472616e7366657220746f206e6f6e20455243373231526560008201527f63656976657220696d706c656d656e7465720000000000000000000000000000602082015250565b7f6d696e74696e67206e6f7420656e61626c656400000000000000000000000000600082015250565b7f4f776e61626c653a206e6577206f776e657220697320746865207a65726f206160008201527f6464726573730000000000000000000000000000000000000000000000000000602082015250565b7f4552433732313a207472616e736665722066726f6d20696e636f72726563742060008201527f6f776e6572000000000000000000000000000000000000000000000000000000602082015250565b7f4552433732313a20746f6b656e20616c7265616479206d696e74656400000000600082015250565b7f4552433732313a207472616e7366657220746f20746865207a65726f2061646460008201527f7265737300000000000000000000000000000000000000000000000000000000602082015250565b7f4552433732313a20617070726f766520746f2063616c6c657200000000000000600082015250565b7f4552433732313a206f70657261746f7220717565727920666f72206e6f6e657860008201527f697374656e7420746f6b656e0000000000000000000000000000000000000000602082015250565b7f736f6c64206f7574000000000000000000000000000000000000000000000000600082015250565b7f4552433732313a20617070726f76652063616c6c6572206973206e6f74206f7760008201527f6e6572206e6f7220617070726f76656420666f7220616c6c0000000000000000602082015250565b7f4552433732313a2062616c616e636520717565727920666f7220746865207a6560008201527f726f206164647265737300000000000000000000000000000000000000000000602082015250565b7f4552433732313a206f776e657220717565727920666f72206e6f6e657869737460008201527f656e7420746f6b656e0000000000000000000000000000000000000000000000602082015250565b7f4552433732313a206d696e7420746f20746865207a65726f2061646472657373600082015250565b7f4552433732313a20617070726f76656420717565727920666f72206e6f6e657860008201527f697374656e7420746f6b656e0000000000000000000000000000000000000000602082015250565b7f2e6a736f6e000000000000000000000000000000000000000000000000000000600082015250565b7f657863656564206d61782077616c6c6574000000000000000000000000000000600082015250565b7f4f776e61626c653a2063616c6c6572206973206e6f7420746865206f776e6572600082015250565b7f4552433732313a20617070726f76616c20746f2063757272656e74206f776e6560008201527f7200000000000000000000000000000000000000000000000000000000000000602082015250565b50565b7f4552433732313a207472616e736665722063616c6c6572206973206e6f74206f60008201527f776e6572206e6f7220617070726f766564000000000000000000000000000000602082015250565b7f546f6b656e20646f6573206e6f74206578697374210000000000000000000000600082015250565b7f7769746864726177206661696c65640000000000000000000000000000000000600082015250565b6135ea81612e44565b81146135f557600080fd5b50565b61360181612e68565b811461360c57600080fd5b50565b61361881612e74565b811461362357600080fd5b50565b61362f81612ec0565b811461363a57600080fd5b5056fea264697066735822122054e64d41621d9497d502be9306f3fd4147a118bb72e2bd8ec62fcf90508ecbb564736f6c63430008040033",
  "linkReferences": {},
  "deployedLinkReferences": {}
}